:020000000C945E
:100002003E000C946B000C9400000C9400000C94C5
:1000120000000C9400000C9400000C9400000C945E
:1000220000000C9400000C9400000C9400000C944E
:1000320000000C9400000C9400000C9400000C943E
:1000420000000C9400000C9400000C9400000C942E
:1000520000001027E80364000A00010000100001FC
:100062001000010001002564000080C001000200B0
:10007200660002006A016C000000F894EE27ECBBF7
:10008200F1E0FBBFEBBFE5BF8DE0A2E0BB27ED9344
:100092008A95E9F780E094E0A0E6ED930197E9F70D
:1000A200EEE6F0E085919591009761F0A591B5910A
:1000B20005901590BF01F00105900D920197E1F7AF
:1000C200FB01F0CFEFE5EDBFE4E0EEBFC0E6D1E02B
:1000D2000C948900EA93EFB7EA9320FE0FC021FE49
:1000E20004C062B67724E89403C042B655246894EB
:1000F20021F8E89420F8E3E0E5BF06C0E0E0E2BFC3
:10010200E2E0E5BF689420F8E991EFBFE991189524
:10011200E2E0E3BFE0E0E2BFECBFEBB7E064EBBFDD
:10012200E2E0E5BFE0E0E4BFE0E4EABFA0E10E9474
:10013200F0027894D201EFE0F0E00E94A30331973D
:100142006F01D301EFE0F0E00E94A30332975F0159
:100152000E948203EC0DFD1D4F0144010024801416
:1001620090045CF4EFEFFFEFE815F90519F4EFEFF7
:10017200F0E002C0F40170964F014401E0E6F1E0C4
:10018200FA93EA93E8E6F0E0FA93EA93F4010E9424
:100192008B030E94BE0384E00E944C0228960E94B8
:1001A200B102A0E6B1E00E94DF02C4CFFFCFBA9352
:1001B200AA931A930A93AA81BB8112960E94B6034C
:1001C200309759F1AA81BB8114960E94B6038F0120
:1001D200309761F00230E0E01E0798F0F8013197A5
:1001E2008F01AA81BB811496ED93FC93AA81BB81F6
:1001F2001296ED91FD913196FE93EE933197AC817B
:10020200A083AA81BB810E94B603FF232AF0ED914D
:10021200FD913196FE93EE9306C0AA81BB81EFEF6A
:10022200FFEFED93FC931981088125960895BA9307
:10023200AA9326970E94C30310E0AC85BD85E0E037
:10024200F0E0ED93FC93EA89FB893196EA8BFB8B14
:100252003197E4912E2FE03009F415C1E12FE030FF
:1002620039F4253211F411E002C00E9437030AC1A9
:10027200E130A9F4253219F40E94370302C112E0D9
:1002820040E000E02D3211F401E0FCC02B3211F409
:100292004BE2F8C0203211F440E2F4C002C0E23076
:1002A20039F450E013E0203311F40068EBC003C0CE
:1002B200E33009F0E7C0203310F02A3308F007C01A
:1002C200AAE05A9F502DE22FE0535E0FDBC0E22FCF
:1002D200E33649F40E943E03E889F989A481AA938E
:1002E2000E944403CEC0E33741F40E943E030E94C1
:1002F2004A030E941E031E2F0AC0E03761F40E94C7
:100302003E030E944A030E942A031E2F08600260D5
:100312000F7730E034C0E43611F0E93611F40460AE
:1003220002C0E53731F4E4E5F0E0EE83FF8315E047
:100332000CC0E83511F4086003C0E83709F0A1C029
:10034200EEE5F0E0EE83FF8314E002FF14C00E94AA
:100352003E030E945403AB85AA233AF4EA85FB8547
:100362000E947E03EA87FB874DE2403011F01F5F57
:1003720001C00B7F04C00E943E030E94540300FD93
:1003820011C0151778F407FF08C002FF04C00B7FE5
:10039200242F115001C020E301C020E20E94370344
:1003A2005150EFCF312F01FF17C03030A1F003FFC2
:1003B20006C0EE81FF812591EE83FF8305C0AE81E9
:1003C200BF812D91AE83BF830E943703503009F065
:1003D20051503150EACF4BC020E3EE81FF810E94A1
:1003E200BA03E887F987EE81FF813296EE83FF83B5
:1003F200E885F985AA85BB85AE17BF0750F02F5F48
:10040200A885B985EA85FB85EA1BFB0BEA87FB8792
:10041200EFCF2A3328F003FF02C0295F01C0295D14
:1004220004FD1AC0213320F4A885B985119709F477
:1004320009C0531710F000FF01C013C020E207FFEC
:100442000BC020E3006102FF07C00B7F4A930E94AA
:100452004403503009F051500E943703503009F0E4
:1004620051503150A885B985129708F0B5CF00FFD9
:1004720008C0503031F05150E0E2EA930E94440348
:10048200F8CF10E0E0CEAC85BD850E94B6030E9495
:10049200CA0364960895FF92F82E26970E94C50318
:1004A2000E945C03309719F4EFEFFFEF23C0DE01E7
:1004B20016960E947A038D010E945C03EE83FF83ED
:1004C200E0E0E887E987DE011A960E947A030E943B
:1004D200B603FA93EA931A930A93E8EDF0E0FA93DB
:1004E200EA93DE011A96A3DE9F01AE81BF81E0E0AE
:1004F200EC93F9010E94CC032A96FF900895AA93E7
:10050200EBB3EF70AE2FE881E07FEA2BEBBB82E02A
:100512008A95F1F7DA9A82E08A95F1F7DA9882E021
:100522008A95F1F788C0AA93A881E9DFE881E2956C
:10053200E883A881E4DF81E18A95F1F77CC0AA9380
:10054200E881F0E0E659FE4FE081A981AE0FEBDFD2
:10055200E981E0936E01E881E0936F0122960895AC
:10056200A2E00E946303ACE0DEDFA1E00E9463032D
:10057200E0E0E0936F01E0936E010895AA93A881F1
:10058200AA3031F0E0917001A0916E01AE1760F0D7
:10059200E0E0EA93A0916F01AF5FA0936F01CFDF1C
:1005A200A881AA3009F447C0E0916E01EF5FE093A1
:1005B2006E01D89AA881B7DFD8983DC0BA93AA93A2
:1005C2001A93A981BA81ED91A983BA831E2FE030D3
:1005D20019F0A12FD3DFF5CF188123960895AA939E
:1005E200EAB3E06FEABBD29AD09AD19ADA98D89855
:1005F200D998E881E0937001E058E0936C01E881BA
:10060200E054E0936D01A4E1B0E00E9470030E9407
:1006120069030E9469030E946903A0E270DF81E21C
:100622008A95F1F7A8E27FDFA4E07DDFA5E87BDF12
:10063200A6E079DF95DF21960895BA93AA93A9914E
:10064200B991EE27FF276D91662311F03196FBCF0A
:100652000895BA93AA93AA27BB27E991F991059025
:10066200002011F01196FBCFFD0108952A93AD856C
:10067200BE85EF85F88909950895E889F989349747
:10068200E88BF98B0895AD85BE85EF85F8890995CC
:100692000895A889B98914960E94B603EE83FF8350
:1006A200AE81BF810895A889B98914960E94B603C4
:1006B200EA87FB870895DE011C960E947A030E9456
:1006C200B60308950E949402A3E0B0E00C94700374
:1006D200A0E30E94800281E28A95F1F708951096C4
:1006E20039F08AEF90E00197F1F7A8951197C9F7D1
:1006F20008950024AF0DB01D0895F195E195F040E5
:100702000895EE0FFF1FEE0FFF1FEE0FFF1FEE0FFC
:10071200FF1F08956F2F660F660B762F0895002432
:10072200112490E1AA0FBB1F001C111C0E1A1F0AF4
:1007320018F40E0E1F1E01C0A1609A9599F7FD01D3
:10074200D001089504D0EBDF0EF4D7DF0895E894CA
:10075200F7FF02C0D2DF6894B7FF06C0A095B0953C
:10076200119600F8039400FA0895ED91FC91119707
:1007720008950590F491E02D08957A936A93FA937F
:10078200EA9308955A934A933A932A931A930A93AF
:1007920008955D814C813B812A81198108810895E8
:00000001FF
