:100000000C942A000C9400000C9400000C94000046
:100010000C9400000C9400000C9400000C94000060
:100020000C9400000C9400000C9400000C94000050
:100030000C9400000C9400000C9400000C94000040
:100040000C9400000C9400000C9400000C94000030
:100050000C940000F894EE27ECBBF1E0FBBFEBBF83
:10006000E5BF8DE0A2E0BB27ED938A95E9F780E03C
:1000700094E0A0E6ED930197E9F7EFE5EDBFE4E04A
:10008000EEBFC0E6D1E00C944500EAE6E3BFE0E055
:10009000E2BFECBFBB9AE1BBEFEFE2BB50B2E52D94
:1000A000F0E0EF70F0703F01E52DF0E0E07FF070E0
:1000B0000E947C004F01F3013196AFE0B0E00E9456
:1000C0008D003F01F4013196AFE0B0E00E948D0059
:1000D0004F01E0E0E2BF6CBE80E092E00197F1F7F3
:1000E000E2BF8CBE80E092E00197F1F7D7CFFFCF5F
:1000F000F195E195F0400895F595E795F595E7952B
:10010000F595E795F595E7950895FA9FF02DEB9F06
:10011000F00DEA9FE02DF10D089504D0F6DF0EF406
:10012000E7DF0895E894F7FF02C0E2DF6894B7FFC5
:1001300006C0A095B095119600F8039400FA0895B2
:00000001FF
